:020000040800F2
:1000000000000A2041F30008010A0008030A000862
:10001000050A0008070A0008090A00080000000095
:1000200000000000000000000000000091F3000844
:100030000B0A000800000000AD0200085902000889
:1000400091F3000891F3000891F3000891F3000880
:1000500091F3000891F3000891F3000891F3000870
:1000600091F3000891F3000891F3000891F3000860
:1000700091F3000891F3000891F3000891F3000850
:1000800091F3000891F3000891F3000891F3000840
:1000900091F3000891F3000891F3000891F3000830
:1000A00091F3000891F3000891F3000891F3000820
:1000B00091F3000891F3000891F3000891F3000810
:1000C00091F3000891F3000891F3000891F3000800
:1000D00091F3000891F3000891F3000891F30008F0
:1000E00091F3000891F3000891F3000891F30008E0
:1000F00091F3000891F3000891F30008000000005C
:1001000091F3000891F3000891F3000891F30008BF
:1001100091F3000891F300080D0A000891F300081C
:1001200091F3000891F3000891F3000891F300089F
:1001300091F3000891F3000891F3000891F300088F
:1001400091F3000891F3000891F300081D0A0008DC
:1001500091F3000891F3000891F3000891F300086F
:1001600091F3000891F3000891F3000891F300085F
:1001700091F3000891F30008000000000000000067
:1001800091F3000891F3000891F3000891F300083F
:1001900091F3000891F30008000000000000000047
:1001A000000000000000000091F3000891F3000837
:1001B00091F3000891F3000891F30008000000009B
:1001C00010B5054C237833B9044B13B10448AFF391
:1001D00000800123237010BD4801002000000000B2
:1001E000D804010808B5034B1BB103490348AFF31A
:1001F000008008BD000000004C010020D804010868
:1002000072B64FF0E0201949C0F8081D1848174988
:10021000096801601748016841F0010101604FF071
:10022000E020154941614FF0070101614FF00001E5
:10023000C0F8181D4FF07F41C0F81C1D0F49C0F8D1
:10024000201D7047FFF7FEBFFFF7FEBFFFF7FEBFA1
:1002500001B5BDE80140704701B500F091F8BDE877
:1002600001407047FFF7FEBFFFF7FEBF0000000828
:1002700008790020001000E07F4F12000000FF40CE
:100280004FF000002A4A1060EFF3148020F00400C1
:1002900080F3148862B64FF080504FF0E021C1F82F
:1002A000040DBFF34F8FBFF36F8FFEE72148224A43
:1002B0004FF00003016891B10360EFF3098C2CE962
:1002C000F00F1EF0100F01D12CED108A1B4C4CF8D2
:1002D00004ED2568C1F808C00DB18D61236072B6C8
:1002E0001168B1B1016062B64F68144C8D6907F1B5
:1002F00001074F602560D1F808C05CF804EB1EF0E0
:10030000100F01D1BCEC108ABCE8F00F8CF3098807
:10031000704772B61168016009B962B6F9E74FF02B
:1003200000674FF0E028C8F8047D62B6DCE770474C
:100330008078002070780020747800206C7E002087
:10034000026922F00702A2F144026FF00203136077
:100350004FF0000353609360D36013615361936166
:10036000D361136253629362D362136353634FF09A
:10037000FF339363D1634FF08073136482607047DF
:100380002249086800F101000860214B1A683AB15F
:10039000A2F101021A601AB91E4B4FF00100186059
:1003A0001D490868026822B11C4B4FF001021A6017
:1003B00008E000F104001A4B1A68904201D1194B71
:1003C00018680860134B1A6812B914490868D0B14C
:1003D0002DE901401149086808B10EF015FE0D4BDA
:1003E0001A6872B10EF07EF90F48016849B90F48DA
:1003F00001680F4A13680F484FF08052994200D0AD
:100400000260BDE80140BFF34F8F7047B87900200C
:100410006C7E00201C7900201479002018790020BF
:10042000A4790020A879002080780020707800202E
:100430007478002004ED00E00000000000000000DF
:1004400001F0FF01102A2BDB10F0070F08D010F885
:10045000013B013A8B422DD010F0070F42B3F6D189
:10046000F0B441EA012141EA014122F007047FF0A2
:1004700000070023F0E80256083C85EA010586EAF9
:10048000010685FA47F5A3FA87F586FA47F6A5FA35
:1004900087F68EB9EED1F0BC01F0FF0102F0070241
:1004A00032B110F8013B013A83EA010313B1F8D1EC
:1004B0000020704701387047002D06BF35460338CD
:1004C000073815F0010F07D1013015F4807F02BF06
:1004D000013015F4C03F0130F0BC0138704700BF57
:1004E00053B94AB9002908BF00281CBF4FF0FF319B
:1004F0004FF0FF3000F074B9ADF1080C6DE904CE97
:1005000000F006F8DDF804E0DDE9022304B07047EE
:100510002DE9F047089D04468E46002B4DD18A42B6
:10052000944669D9B2FA82F252B101FA02F3C2F1E9
:10053000200120FA01F10CFA02FC41EA030E94407A
:100540004FEA1C48210CBEFBF8F61FFA8CF708FB9B
:1005500016E341EA034306FB07F199420AD91CEB73
:10056000030306F1FF3080F01F81994240F21C81A5
:10057000023E63445B1AA4B2B3FBF8F008FB1033ED
:1005800044EA034400FB07F7A7420AD91CEB040422
:1005900000F1FF3380F00A81A74240F207816444F2
:1005A000023840EA0640E41B00261DB1D440002377
:1005B000C5E900433146BDE8F0878B4209D9002DDB
:1005C00000F0EF800026C5E9000130463146BDE865
:1005D000F087B3FA83F6002E4AD18B4202D38242CF
:1005E00000F2F980841A61EB030301209E46002D7E
:1005F000E0D0C5E9004EDDE702B9FFDEB2FA82F2D3
:10060000002A40F09280A1EB0C014FEA1C471FFA30
:100610008CFE0126200CB1FBF7F307FB131140EA17
:1006200001410EFB03F0884208D91CEB010103F1E4
:10063000FF3802D2884200F2CB804346091AA4B2A6
:10064000B1FBF7F007FB101144EA01440EFB00FE7A
:10065000A64508D91CEB040400F1FF3102D2A645DF
:1006600000F2BB800846A4EB0E0440EA03409CE77E
:10067000C6F12007B34022FA07FC4CEA030C20FA2B
:1006800007F401FA06F31C43F9404FEA1C4900FA4B
:1006900006F3B1FBF9F8200C1FFA8CFE09FB1811C8
:1006A00040EA014108FB0EF0884202FA06F20BD93B
:1006B0001CEB010108F1FF3A80F08880884240F28B
:1006C0008580A8F102086144091AA4B2B1FBF9F0CF
:1006D00009FB101144EA014100FB0EFE8E4508D9CA
:1006E0001CEB010100F1FF346CD28E456AD902384F
:1006F000614440EA0840A0FB0294A1EB0E01A14234
:10070000C846A64656D353D05DB1B3EB080261EBA1
:100710000E0101FA07F722FA06F3F1401F43C5E97B
:10072000007100263146BDE8F087C2F12003D840B1
:100730000CFA02FC21FA03F3914001434FEA1C47F3
:100740001FFA8CFEB3FBF7F007FB10360B0C43EAE5
:10075000064300FB0EF69E4204FA02F408D91CEB95
:10076000030300F1FF382FD29E422DD90238634493
:100770009B1B89B2B3FBF7F607FB163341EA034133
:1007800006FB0EF38B4208D91CEB010106F1FF3882
:1007900016D28B4214D9023E6144C91A46EA004679
:1007A00038E72E46284605E70646E3E61846F8E60B
:1007B0004B45A9D2B9EB020864EB0C0E0138A3E754
:1007C0004646EAE7204694E74046D1E7D0467BE735
:1007D000023B614432E7304609E76444023842E7AD
:1007E000704700BFF0B58BB00025059506950795BD
:1007F00008950995254CE36C43F08003E364E36CB2
:1008000003F080030193019BE36C43F00203E36474
:10081000E36C03F002030293029BE36C43F040039A
:10082000E364E36C03F040030393039B02F0DAFB01
:10083000E36C43F00103E364E36C03F0010304930E
:10084000049B134F2A464FF48041384602F024FBA4
:10085000104C2A464021204602F01EFB4FF48043F4
:1008600005930126069607950223089305A93846A5
:1008700002F01AFA4023059306960795089505A9F4
:10088000204602F011FA0BB0F0BD00BF001002408C
:10089000000400480018004800B583B001904FF6EE
:1008A000FF73012201A9034800F021FF019803B062
:1008B0005DF804FB6804002008B50268034B9A4207
:1008C00000D008BD01F08EF8FBE700BF001000402B
:1008D00072B6FEE708B51548154B03604FF4E133D7
:1008E000436000238360C36003610C224261836123
:1008F000036243628362436600F0A2FF70B9002185
:100900000A4801F016F858B90021084801F036F8F5
:1009100040B9064800F0EEFF30B908BDFFF7D8FF38
:10092000FFF7D6FFFFF7D4FFFFF7D2FF68040020E0
:100930000080004000B597B04422002105A80EF0C9
:1009400061FD00200090019002900390049002F05D
:10095000BBFA20BB212305934FF4A0230693012368
:100960000E9302230F930322109211933C221292B2
:1009700013931493159305A801F038F988B90F2340
:10098000009303230193002302930393049305210F
:10099000684601F069FC30B917B05DF804FBFFF759
:1009A00097FFFFF795FFFFF793FF08B501F00BF8EE
:1009B000FFF7C0FFFFF716FFFFF78CFF00F01CF8F2
:1009C000FEE7000008B50A484FF0A04303600C237F
:1009D00083600323C3600023036102228261C36139
:1009E000C36202F0B8FD00B908BDFFF771FF00BF98
:1009F000640100200020704708B50CF0E5F908BD3F
:100A0000FEE7FEE7FEE7FEE7FEE7704708B50248AF
:100A100002F094FB08BD00BFF804002008B50248AE
:100A200003F07CF908BD00BF6401002082B00A4BCE
:100A30001A6E42F001021A661A6E02F0010200926A
:100A4000009A9A6D42F080529A659B6D03F0805334
:100A50000193019B02B070470010024010B5ACB08A
:100A6000044600212791289129912A912B919422C3
:100A700002A80EF0C7FC2268194B9A4201D02CB094
:100A800010BD2023029302A801F0A0FE20BB154B4D
:100A9000DA6D42F00102DA65DA6D02F001020092CD
:100AA000009ADA6C42F04002DA64DB6C03F0400337
:100AB0000193019B02F096FA4FF4C073279302232F
:100AC00028930023299303232A9308232B9327A9F0
:100AD000054802F0E9F8D2E7FFF7FAFED7E700BFD2
:100AE00000800040001002400018004810B5AEB071
:100AF0000446002129912A912B912C912D91942229
:100B000004A80EF07FFC2368B3F1A04F01D02EB0F3
:100B100010BD4FF40053049304A801F057FE0028C1
:100B20003ED1224CE36C43F00103E364E36C03F039
:100B300001030193019B4FF4C053299302232A938D
:100B400000232B9303232C930A232D9329A94FF0E1
:100B5000904002F0A9F8E36C43F48053E364E36C43
:100B600003F480530293029BA36D13F0805F1AD1AC
:100B7000A36D43F08053A365A36D03F080530393EB
:100B8000039B02F027FAA36D23F08053A365002294
:100B90000721432002F040FA432002F075FAB6E73D
:100BA000FFF796FEBDE702F015FAF0E700100240ED
:100BB00030B589B00446214B9A6D42F010029A6517
:100BC0009B6D03F010030193019B02A903A801F0A0
:100BD00077FC069BCBB901F04FFC03461848A0FBFD
:100BE00003239B0C013B1748174A026040F2E7328F
:100BF000C2604360002303618360836102F0D0FB25
:100C0000054630B1284609B030BD01F035FC43003F
:100C1000E4E70C4802F048FA05460028F2D13620F5
:100C200002F032FA0F2C01D90125EBE70022214610
:100C3000362002F0F1F9054B1C60E3E7001002409A
:100C400083DE1B43F8040020001000402000002039
:100C500000B585B0002303931FE0FFF739FE27E0BE
:100C600039480EF0D7FB39480EF070FC0A200EF020
:100C7000E9FB12E034480EF0CDFB35480EF0CAFB1C
:100C80000A200EF0DFFB08E02F480EF0C3FB3148CE
:100C90000EF0C0FB0A200EF0D5FB4FF0FF3300939F
:100CA00003AB012211462C480DF074FE0028D4D16C
:100CB0002A4B1B68002B42D029480EF047FC0A2023
:100CC0000EF0C0FB254B186800F06EFA0028DBD14F
:100CD00024480EF03BFC0A200EF0B4FB22480EF034
:100CE00035FC0A200EF0AEFB1C4B186800F0F4F93E
:100CF0000028BFD11D480EF029FC0A200EF0A2FBEF
:100D00001B480EF023FC0A200EF09CFB134B1868C6
:100D100000F010FA0028A3D116480EF017FC0A20A4
:100D20000EF090FB14480EF011FC0A200EF08AFB26
:100D300012480EF00BFC0A200EF084FBADE70120F8
:100D40000DF090FAA9E700BFDC050108E4050108F1
:100D5000000601081C0601080006002044050020CA
:100D600014050108340501084C0501086405010853
:100D70007C05010894050108AC050108BC050108C3
:100D800008B5442A02D05F2A07D008BD06480EF0F5
:100D900041FB0A200EF056FBF7E704480EF03AFB41
:100DA0000A200EF04FFBF0E7440601086406010834
:100DB00038B5012803D0022841D0002038BD0C46A8
:100DC000496C284B9942F8D1274B1B68002BF4D172
:100DD000254D2A6025480EF01DFB0A200EF032FB3F
:100DE0002B689B68D96E22480EF014FB0A200EF087
:100DF00029FB2B689B68996E1E480EF00BFB0A209E
:100E00000EF020FB236D1C4A136003F50052D2F84C
:100E1000C4248AB1184B00221A60134B1B68DB6E86
:100E2000012BCAD10022012114480DF0EBFD00284E
:100E3000C3D0FFF74DFDC0E7114A1360EDE70A4B41
:100E40001B689342B9D10023074A13600A4A136012
:100E50000B4A13600B480EF0DDFA0A200EF0F2FA8E
:100E6000ABE700BFF19B0008F80500207C060108F5
:100E7000A0060108AC060108FC05002000060020C1
:100E800044050020B806010810B58AB004460023C6
:100E90004FF4B04209A90DF06FFC002857D1002390
:100EA0001A464FF4B04109980BF0FCF8002851D1D4
:100EB0002F480AF0F3F900284ED12E480AF09EFE82
:100EC0002D492E4809F0AAFD002847D100234FF4F0
:100ED000806209A920460DF04FFC002840D1B023C4
:100EE000069301230593002304930A22039202929E
:100EF0004FF480620192099A0092214A21492248C6
:100F00000DF010FF70BB00234FF4806209A920464A
:100F10000DF032FC40BBB023069301230593002360
:100F200004931E22039202924FF480620192099A66
:100F30000092164A164917480DF0F4FEB0B9242263
:100F4000154916480DF0CCFC10B1062000E0022037
:100F50000AB010BDFF20FBE7FF20F9E7FF20F7E70D
:100F60000220F5E70E20F3E70220F1E70E20EFE77D
:100F7000B10D0008810D0008F19B000884000020DD
:100F800039100008DC06010824060020510C000876
:100F9000F80601084805002008070108000600209F
:100FA00008B5012808D000224021064801F074FF4E
:100FB000C82000F029FD08BD01224021014801F0B0
:100FC0006BFFF5E70018004810B5FFF7FBFC134C6A
:100FD00023464FF0A042124912480AF00DF90120B1
:100FE000FFF7DEFF204602F043FF0F480EF0AEFA97
:100FF0000A200EF027FA0D480EF0A8FA0A200EF08B
:1010000021FA0B480EF006FA0A200EF01BFA0948E6
:101010000EF000FA0A200EF015FA10BD640100204F
:1010200061C700089C000020140701083C07010864
:10103000580701087407010808B5FFF7C5FF08BD88
:1010400000B583B0342300934FF48063164A1749E8
:1010500017480DF0DBFB20B91548FFF7CBFC00B1BA
:10106000FEE7342300934FF40063124A12491348F9
:101070000DF0CCFB20B9114800F028F800B1FEE7D4
:10108000342300934FF4C8430D4A0E490E480DF027
:10109000BDFB10B103B05DF804FB0B48FFF7F4FE95
:1010A0000028F7D0FEE700BF3C0F00208C070108A6
:1010B000080F002008070020A0070108D406002020
:1010C00070130020B40701083C13002008B506F097
:1010D00077FD002008BD000030B5FBB004464FF49A
:1010E000F07300930123114A02A908F073F9054631
:1010F00010B128467BB030BD002102A808F0F4F9F9
:101100001D220B4902A808F00FFA054630B902A8C3
:1011100008F000F9204608F04BFAEAE702A808F0C8
:10112000F9F80249204608F035F9E2E7C807010856
:101130000000002030B5FDB0044602AA174908F0AF
:10114000C5F8054618B9029B13F0180F02D02846BF
:101150007DB030BD4FF4F073009300230F4A04A913
:10116000204608F037F905460028F0D1002104A8F0
:1011700008F0BAF903AB6422094904A808F08CF915
:10118000054618B104A808F0C5F8E0E71D22044997
:1011900004480AF0FFFD0546F4E700BFC807010850
:1011A000707700200000002008B5044908F0D2F84C
:1011B0000B2800D008BD0020FCE700BFC8070108CD
:1011C00070B504460168836802691343426913439A
:1011D000C26913430868964A024013430B602268B1
:1011E000536823F44053E1680B435360A1692268BC
:1011F000904B9A4201D0236A1943936823F06E43BF
:1012000023F430630B4393602268D36A23F00F0307
:10121000616A0B43D3622368874A934210D0874A9E
:10122000934221D0864A934237D0864A93425CD07B
:10123000854A93426BD07F4A93427DD010223AE098
:1012400002F55842D2F8882002F00302032A09D896
:10125000DFE802F00204870601222CE004222AE0E3
:10126000082228E0102226E002F5E632D2F8882093
:1012700002F00C020C2A0ED8DFE802F0070D0D0D6B
:10128000090D0D0D750D0D0D0B00002213E004224C
:1012900011E008220FE010220DE002F5E432D2F84E
:1012A000882002F03002202A5FD01AD8002A5ED0AF
:1012B000102A5ED104225F498B4276D0E069B0F5F6
:1012C000004F00F0C980082A00F23481DFE812F0F4
:1012D000F7001901F50032011C013201320132011F
:1012E0001F01302A47D10822E5E702F5E232D2F8A1
:1012F000882002F0C002802A3FD004D8FAB3402AE6
:101300003FD10422D7E7C02A3DD10822D3E702F516
:10131000E032D2F8882002F44072B2F5007F34D077
:1013200005D8A2B3B2F5807F33D10422C3E7B2F56A
:10133000407F30D10822BEE702F5C832D2F88820BB
:1013400002F44062B2F5006F27D005D83AB3B2F587
:10135000806F26D10422AEE7B2F5406F23D1082278
:10136000A9E70222A7E70222A5E70222A3E70022BB
:10137000A1E710229FE710229DE702229BE70022AF
:1013800099E7102297E7102295E7022293E70022BF
:1013900091E710228FE710228DE702228BE70022CF
:1013A00089E7102287E7102285E7082A00F2B28039
:1013B000DFE802F008B03BB038B0B0B005004FF441
:1013C000004004E001F058F8002800F0A580626AAF
:1013D0001E4B33F81220B0FBF2F3656805EB4501B4
:1013E000994200F29B80B3EB053F00F29980002602
:1013F00033463146FFF774F8090241EA10610002F2
:101400006B08C0182A46334641F10001FFF768F81F
:10141000A0F540720E4B9A4200F284802368D86097
:10142000304665E000F088FBCEE70A48CFE700BF12
:10143000F369FFCF008000400038014000440040C5
:1014400000480040004C004000500040D407010814
:10145000FFFC0F000024F400082A65D8DFE802F042
:10146000072705642A6464640B00354803E001F033
:1014700003F800285AD0626A324B33F81230B0FBBE
:10148000F3F06268530803EB4000B0FBF2F0A0F108
:1014900010024FF6EF739A424AD883B223F00F033B
:1014A000C0F3420018432368D860002020E000F019
:1014B000F5FFDEE700F040FBDBE7214803E000F04A
:1014C000DBFF002838D0626A1E4B33F81230B0FBC5
:1014D000F3F0636800EB5300B0FBF3F0A0F11002EF
:1014E0004FF6EF739A4229D8236880B2D860002063
:1014F0000123A4F86A30A4F86830002323676367E7
:1015000070BD00F0CBFFDCE700F016FBD9E74FF42D
:101510000040D8E70120EBE70020E9E70120E7E7FA
:101520000120E5E70120E3E70120E1E70020DFE714
:101530000120DDE70120DBE70020D9E70120D7E724
:101540000024F400D4070108836A13F0010F06D0C9
:101550000268536823F40033C16A0B435360836A03
:1015600013F0020F06D00268536823F48033016B36
:101570000B435360836A13F0040F06D0026853686C
:1015800023F48023416B0B435360836A13F0080FED
:1015900006D00268536823F40043816B0B43536009
:1015A000836A13F0100F06D00268936823F4805307
:1015B000C16B0B439360836A13F0200F06D002685F
:1015C000936823F40053016C0B439360836A13F018
:1015D000400F0AD00268536823F48013416C0B4318
:1015E0005360436CB3F5801F0BD0836A13F0800FF8
:1015F00006D00268536823F40023C16C0B43536088
:1016000070470268536823F4C003816C0B43536036
:10161000EBE72DE9F84305460F4616469946DDF8F7
:1016200020802C68E46937EA04030CBF4FF0010CFA
:101630004FF0000CB44557D1B8F1FF3FF1D000F0A6
:10164000DDF9A0EB090040452FD8B8F1000F2CD0F0
:101650002B681A6812F0040FE3D0DA6912F4006FF5
:10166000DFD04FF400621A622A6852E8003F23F488
:10167000D07342E800310029F6D12A6802F108034C
:1016800053E8003F23F00103083242E8003100290B
:10169000F3D12023C5F88430C5F88830C5F88C30E4
:1016A000002385F8803003201FE02A6852E8003FBD
:1016B00023F4D07342E800310029F6D12A6802F100
:1016C000080353E8003F23F00103083242E80031E9
:1016D0000029F3D12023C5F88430C5F888300023D1
:1016E00085F88030032000E00020BDE8F8832DE974
:1016F000F04182B01E46D0F88430202B58D10446E9
:101700000D469046002957D0002A57D090F88030D7
:10171000012B55D0012380F880300023C0F88C3095
:101720002123C0F8843000F069F90746A4F85480FA
:10173000A4F85680A368B3F5805F05D04FF0000889
:10174000002384F8803014E0236913B14FF00008BF
:10175000F6E7A8460025F3E738F8023B2268C3F312
:1017600008031385B4F8562092B2013A92B2A4F855
:101770005620B4F856309BB273B100963B46002217
:1017800080212046FFF745FFE0B9002DE4D0236813
:1017900015F8012B1A85E5E700963B46002240210B
:1017A0002046FFF736FF78B92023C4F8843000E0E4
:1017B000022002B0BDE8F0810120FAE70120F8E73D
:1017C0000220F6E70320F4E70320F2E730B583B008
:1017D00004460023C0F88C3000F010F9054622685A
:1017E000126812F0080F0FD123681B6813F0040F62
:1017F00018D12023C4F88430C4F888300020E06673
:1018000084F8800003B030BD6FF07E430093034640
:1018100000224FF400112046FFF7FBFE0028E3D022
:101820000320EFE76FF07E4300932B4600224FF436
:1018300080012046FFF7EDFE0028DAD00320E1E723
:1018400078B310B50446D0F884300BB32423C4F821
:1018500084302268136823F0010313602046FFF7E9
:10186000AFFC012813D0A36ABBB92268536823F4E4
:10187000904353602268936823F02A0393602268A0
:10188000136843F0010313602046FFF79FFF10BD6C
:1018900080F88030FFF7E2F8D8E72046FFF754FEE3
:1018A000E3E7012070470000436E2BB90123A0F845
:1018B0006A30A0F86830704730B403689A68C2F3A1
:1018C00042629968490F094D6B5CDB00084C615C12
:1018D00093FBF1F3A0F86A30AB5CDB00A25C93FBF6
:1018E000F2F3A0F8683030BC704700BFF40701087D
:1018F000EC07010890F88030012B18D0012380F804
:1019000080302423C0F8843003681A68196821F0F5
:101910000101196022F000520023436601680A6049
:101920002022C0F8842080F88030184670470220BA
:10193000704738B590F88030012B1DD00446012344
:1019400080F880302423C0F8843003681D681A684A
:1019500022F001021A600268936823F06043194381
:101960009160FFF7A1FF23681D602023C4F8843035
:10197000002084F8800038BD0220FCE738B590F8DC
:101980008030012B1DD00446012380F880302423B1
:10199000C0F8843003681D681A6822F001021A60DA
:1019A0000268936823F0606319439160FFF77CFF3E
:1019B00023681D602023C4F88430002084F8800050
:1019C00038BD0220FCE710B5032001F013FB0F2007
:1019D000FFF7EEF810B10124204610BD0446FFF7D2
:1019E00025F8F9E7034B1B78034A11680B44136091
:1019F000704700BF1D000020D4770020014B1868FD
:101A0000704700BFD477002038B50446FFF7F6FFD3
:101A10000546B4F1FF3F02D0044B1B781C44FFF78E
:101A2000EDFF401BA042FAD338BD00BF1D000020CF
:101A30001A4BDB6803F00303022B2BD0032B2BD0B4
:101A4000012B14D00021154AD368C3F303130133CB
:101A5000D068C0F3062001FB00F0B0FBF3F0D368C0
:101A6000C3F3416301335B00B0FBF3F070470B4BF2
:101A70001B6813F0080F08D1084BD3F89430C3F358
:101A80000323074A52F82310DDE7044B1B68C3F316
:101A90000313F6E70349D6E70349D4E700100240F1
:101AA000140801080024F40000127A0030B583B055
:101AB00004461F4B9B6D13F0805F0AD001F0F2F9D2
:101AC000B0F5007F16D07F2C1ED8702C2BD00021B3
:101AD0001BE0174DAB6D43F08053AB65AB6D03F06E
:101AE00080530193019B01F0DDF9AB6D23F080532E
:101AF000AB65E5E7802C03D9A02C03D9022104E0D3
:101B0000002102E0012100E002210A4A136823F0CB
:101B10000F030B431360136803F00F038B4204D1D0
:101B2000002003B030BD0121EFE70120F9E700BF3D
:101B30000010024000200240284A9368D26802F058
:101B4000030213F00C030AD00C2B06D0042B1FD079
:101B5000082B20D00020024610E0012AF6D11F4AAF
:101B6000126812F0080F0CD11C4AD2F89420C2F36C
:101B700003221B4951F8222043B100200C2B0DD029
:101B80007047164A1268C2F30312F2E71046F5E7EF
:101B900014480022F2E714480022EFE70F4BDB68FD
:101BA00003F00303022B16D0032B00D10E4A0B497E
:101BB000C868C0F30310431CC868C0F3062002FBCA
:101BC00000F0B0FBF3F0CB68C3F3416301335B007B
:101BD000B0FBF3F0D4E7034AE9E700BF001002408E
:101BE000140801080024F40000127A00002800F014
:101BF0002283F0B583B00446964B9D6805F00C0532
:101C0000DE6806F00306036813F0100F5AD0E5B142
:101C10000C2D18D0A369002B00F0BB808D4A1368EF
:101C200043F001031360FFF7E9FE0746894B1B6889
:101C300013F0020F40F09A80FFF7E0FEC01B02286D
:101C4000F4D9032002E3012EE4D1824B1B6813F088
:101C5000020F03D0A369002B00F0EF82206A7D4BB6
:101C60001B6813F0080F5BD07A4B1B6803F0F0037E
:101C700098425CD8774B1A6842F008021A601A68DA
:101C800022F0F002216A0A431A605A6822F47F4265
:101C9000E16942EA01225A60002D60D0FFF74CFF53
:101CA0006C4B9B68C3F303136B4AD35C03F01F03B5
:101CB000D8406A4B18606A4B1868FEF779FF002815
:101CC00040F0C482236813F0010F00F08180082DDA
:101CD00075D00C2D71D06368B3F5803F00F097800C
:101CE000B3F5A02F00F099805A4B1A6822F4803285
:101CF0001A601A6822F480221A606368002B00F0D0
:101D00009980FFF77BFE0746524B1B6813F4003F98
:101D10005ED1FFF773FEC01B6428F5D9032095E25E
:101D20004C4BD3F894301B0903F0F003A0E7FFF706
:101D3000BDFE002840F08382464B1A6842F008023C
:101D40001A601A6822F0F002216A0A431A605A687F
:101D500022F47F42E16942EA01225A609EE7206A4A
:101D6000FFF7A4FE002899D001206FE2394B1A68D2
:101D700042F008021A601A6822F0F002216A0A434F
:101D80001A605A6822F47F42E16942EA01225A60ED
:101D900098E7304A136823F001031360FFF72EFE23
:101DA00007462C4B1B6813F0020F8BD0FFF726FE63
:101DB000C01B0228F5D9032048E2032E8BD1254B06
:101DC0001B6813F4003F03D06368002B00F03982D6
:101DD000236813F0020F58D0042D45D00C2D41D0AC
:101DE000E368002B77D01B4A136843F480731360B9
:101DF000FFF704FE0646174B1B6813F4806F61D192
:101E0000FFF7FCFD801B0228F5D903201EE2114AD2
:101E1000136843F4803313606FE703F18043A3F545
:101E20003C331A6842F480221A601A6842F4803205
:101E30001A6062E7FFF7E2FD0746064B1B6813F4E2
:101E4000003FC5D0FFF7DAFDC01B6428F5D9032099
:101E5000FCE100BF00100240FC0701082400002044
:101E600020000020022EBBD1A74B1B6813F4806F0B
:101E700003D0E368002B00F0E681A34A536823F007
:101E8000FE43216943EA01635360236813F0080F9E
:101E90004CD063699BB39C4AD2F8943043F0010361
:101EA000C2F89430FFF7AAFD0646974BD3F894305A
:101EB00013F0020F3AD1FFF7A1FD801B0228F4D9DD
:101EC0000320C3E1904A536823F0FE43216943EAAB
:101ED00001635360D9E78C4A136823F4807313605D
:101EE000FFF78CFD0646884B1B6813F4806FCCD03F
:101EF000FFF784FD801B0228F5D90320A6E1824A62
:101F0000D2F8943023F00103C2F89430FFF776FD45
:101F100006467D4BD3F8943013F0020F06D0FFF73E
:101F20006DFD801B0228F4D903208FE1236813F094
:101F3000040F7AD0744B9B6D13F0805F36D1724BD7
:101F40009A6D42F080529A659B6D03F08053019325
:101F5000019B01266D4B1B6813F4807F28D0A3687A
:101F6000012B39D0052B3FD0674BD3F8902022F0BE
:101F70000102C3F89020D3F8902022F00402C3F8A5
:101F80009020A368002B3DD0FFF738FD07465E4B3D
:101F9000D3F8903013F0020F46D1FFF72FFDC01B8E
:101FA00041F288339842F2D903204FE10026D1E76D
:101FB000564A136843F480731360FFF71FFD07460A
:101FC000524B1B6813F4807FC9D1FFF717FDC01B6C
:101FD0000228F5D9032039E14B4AD2F8903043F07A
:101FE0000103C2F89030CCE7474BD3F8902042F081
:101FF0000402C3F89020D3F8902042F00102C3F805
:102000009020BEE7FFF7FAFC07463F4BD3F890302D
:1020100013F0020F08D0FFF7F1FCC01B41F2883328
:102020009842F2D9032011E1E6B9236813F0200F9A
:1020300035D0636AE3B1344AD2F8983043F00103F3
:10204000C2F89830FFF7DAFC06462F4BD3F89830E9
:1020500013F0020F23D1FFF7D1FC801B0228F4D923
:102060000320F3E0284A936D23F080539365DCE767
:10207000254AD2F8983023F00103C2F89830FFF7D0
:10208000BDFC0646204BD3F8983013F0020F06D063
:10209000FFF7B4FC801B0228F4D90320D6E0A36A22
:1020A000002B00F0D280022B17D00C2D00F0D48032
:1020B000154A136823F080731360FFF79FFC0446F2
:1020C000114B1B6813F0007F00F0AE80FFF796FC09
:1020D000001B0228F4D90320B8E00B4BDB6803F0A7
:1020E0000301E26A914213D00C2D00F0B180064B3F
:1020F0001B6813F0806F40F0AD80034B1B6813F03A
:10210000805F2FD00120A1E000100240007000404D
:1021100003F0F002216B0139B2EB011FE4D103F4AB
:10212000FE42616BB2EB012FDED103F07842A16B6E
:10213000B2EBC16FD8D103F4C001E26B5208013A8F
:10214000B1EB425FD0D103F0C063226C5208013A78
:10215000B3EB426FC8D1414B1B6813F0007F49D0ED
:10216000002073E03D4A136823F080731360FFF78B
:1021700045FC0546394B1B6813F0007F06D0FFF77E
:102180003DFC401B0228F5D903205FE0334AD368A9
:1021900033491940E36A206B013843EA0013606B4E
:1021A00043EA0023E06B4008013843EA4053206CC7
:1021B0004008013843EA4063A06B43EAC0630B4325
:1021C000D360136843F080731360D36843F0807367
:1021D000D360FFF713FC0446204B1B6813F0007F0D
:1021E00006D1FFF70BFC001B0228F5D903202DE0D8
:1021F00000202BE0194B1A6842F080721A60DA68EE
:1022000042F08072DA60FFF7F9FB0446134B1B685B
:1022100013F0007F06D1FFF7F1FB031B022BF5D96A
:10222000032013E0002011E00C4AD1680D4B0B4055
:10223000D36000200AE001207047012006E0012061
:1022400004E0012002E0012000E0002003B0F0BD26
:102250000120FBE70120F9E70120F7E70010024029
:102260000C809D01FCFFEEFE002800F0EA80F8B52E
:102270000D460446774B1B6803F00F038B420BD2CD
:10228000744A136823F00F030B431360136803F0C1
:102290000F038B4240F0D780236813F0020F0CD05D
:1022A000A2686D4B9B6803F0F0039A4205D96A4916
:1022B0008B6823F0F0031A438A60236813F0010F40
:1022C0006ED06368032B0DD0022B25D0002B3CD1A0
:1022D00003F1804303F504331B6813F0020F21D18F
:1022E0000120A7E05C4B1B6813F0007F01D10120A7
:1022F000A0E0FFF79DFB594B98422DD9564B9B68A8
:1023000013F0F00F2AD1544A936823F0F00343F0FE
:1023100080039360802724E04F4B1B6813F4003F39
:1023200000F09380FFF708FC4C4B984218D94A4BB9
:102330009B6813F0F00F2FD1474A936823F0F00306
:1023400043F08003936080270BE0434B1B6813F43A
:10235000806FE7D101206DE0002702E0002700E058
:1023600000273D4A936823F0030361680B439360A1
:10237000FFF744FB0646384B9B6803F00C0362688A
:10238000B3EB820F0AD0FFF739FB801B41F2883391
:102390009842F0D903204DE00027E2E7002F4AD110
:1023A000236813F0020F0CD0A2682B4B9B6803F03C
:1023B000F0039A4205D228498B6823F0F0031A43B0
:1023C0008A60244B1B6803F00F03AB420AD9214AF1
:1023D000136823F00F032B431360136803F00F03FC
:1023E000AB4234D1236813F0040F06D01A4A936825
:1023F00023F4E063E1680B439360236813F0080F54
:1024000007D0154A936823F46053216943EAC10356
:102410009360FFF791FB104B9B68C3F30313104AC3
:10242000D35C03F01F03D8400E4B18600E4B1868A6
:10243000FEF7BEFBF8BD084A936823F0F0039360F3
:10244000AEE7012070470120F4E70120F2E7012008
:10245000F0E700BF002002400010024000B4C404B6
:10246000FC0701082400002020000020014B186810
:10247000704700BF2400002008B5FFF7F7FF054BA9
:102480009B68C3F30223044AD35C03F01F03D840C4
:1024900008BD00BF001002400C08010808B5FFF796
:1024A000E5FF054B9B68C3F3C223044AD35C03F0EA
:1024B0001F03D84008BD00BF001002400C080108EF
:1024C0000F2303600B4B9A6802F0030242609A6884
:1024D00002F0F00282609A6802F4E062C2609B68D7
:1024E000DB0803F4E0630361034B1B6803F00F0395
:1024F0000B6070470010024000200240F8B504460F
:102500000F46544BDB6813F0030F0ED0514BDB68C2
:1025100003F003030268934202D001252846F8BD68
:10252000002A00F09580002509E00368022B54D0B2
:10253000032B59D0012B43D00125002DEED1454A64
:10254000136823F080531360FFF758FA0646414B97
:102550001B6813F0005F05D0FFF750FA831B022BB6
:10256000F5D90325002DD9D1002F4BD13948436926
:10257000394A1A40A168E368DB0643EA012361682F
:10258000013943EA011313434361324A136843F0AC
:1025900080531360FFF732FA06462E4B1B6813F088
:1025A000005F05D1FFF72AFA831B022BF5D903251B
:1025B000002DB3D1274A5369A1690B435361ADE79D
:1025C000244A126812F0020F1AD02249CA6822F077
:1025D00003021343CB600025AFE71E4A126812F4D2
:1025E000806FF2D10125A8E71A4A126812F4003F61
:1025F000EBD1184A126812F4802FE6D101259CE72E
:1026000001259AE7012F11D012484369134A1A4055
:10261000A16863695B08013B5B0643EA01236168CB
:10262000013943EA011313434361AEE709484369A3
:102630000B4A1A40A16823695B08013B5B0543EA2A
:1026400001236168013943EA0113134343619CE7A5
:10265000012563E7001002400F80FF070F80FFF99C
:102660000F809FFFF8B504460F46544BDB6813F00C
:10267000030F0ED0514BDB6803F003030268934253
:1026800002D001252846F8BD002A00F095800025DB
:1026900009E00368022B54D0032B59D0012B43D0FF
:1026A0000125002DEED1454A136823F080631360A5
:1026B000FFF7A4F90646414B1B6813F0006F05D0E5
:1026C000FFF79CF9831B022BF5D90325002DD9D1E7
:1026D000002F4BD139480369394A1A40A168E36891
:1026E000DB0643EA01236168013943EA011313431E
:1026F0000361324A136843F080631360FFF77EF989
:1027000006462E4B1B6813F0006F05D1FFF776F9D4
:10271000831B022BF5D90325002DB3D1274A13695A
:10272000A1690B431361ADE7244A126812F0020F4E
:102730001AD02249CA6822F003021343CB60002555
:10274000AFE71E4A126812F4806FF2D10125A8E7A4
:102750001A4A126812F4003FEBD1184A126812F4B8
:10276000802FE6D101259CE701259AE7012F11D0A2
:1027700012480369134A1A40A16863695B08013B68
:102780005B0643EA01236168013943EA01131343FD
:102790000361AEE7094803690B4A1A40A16823693F
:1027A0005B08013B5B0543EA01236168013943EAA9
:1027B0000113134303619CE7012563E70010024006
:1027C0000F80FF070F80FFF90F809FFF2DE9F04179
:1027D00082B00446036813F4006F34D0C36E402BFC
:1027E0001FD00BD823B3202B05D100212030FFF7B9
:1027F00085FE064621E001273E4626E0602B20D0DC
:10280000802B0BD10026634AD2F89C3023F0E003E2
:10281000E16E0B43C2F89C30002716E001273E46CC
:1028200013E05C4AD36843F48033D3600026EAE7C0
:1028300000210430FFF716FF0646002EE3D037468E
:1028400003E00026DFE700273E46236813F4805F9D
:1028500033D0236FB3F5007F22D00DD833B3B3F557
:10286000807F06D1002104F12000FFF747FE0646D5
:1028700008E001273E4620E0B3F5407F02D0B3F5E3
:10288000806F0AD1C6B9434AD2F89C3023F4E06382
:10289000216F0B43C2F89C300FE001273E460CE04D
:1028A0003C4AD36843F48033D360EBE70021201D1A
:1028B000FFF7D8FE0646E5E73746236813F4003FE6
:1028C00071D0344B9B6D13F0805F4ED1314B9A6DBC
:1028D00042F080529A659B6D03F080530193019BF7
:1028E0004FF001082C4A136843F480731360FFF71C
:1028F00085F80546284B1B6813F4807F05D1FFF748
:102900007DF8401B0228F5D90326002E46D1214B25
:10291000D3F8903013F4407316D0D4F890209A4234
:1029200012D01C4AD2F8903023F44073D2F89010A1
:1029300041F48031C2F89010D2F8901021F4803127
:10294000C2F89010C2F8903013F0010F10D1002E91
:1029500040F059810F4AD2F8903023F44073D4F8F4
:1029600090100B43C2F8903019E04FF00008B9E71F
:10297000FFF744F80546074BD3F8903013F0020FE9
:10298000E5D1FFF73BF8401B41F288339842F2D97A
:102990000326DCE700100240007000403746B8F123
:1029A000000F40F03281236813F0010F08D0B64ABF
:1029B000D2F8883023F00303E16B0B43C2F8883070
:1029C000236813F0020F08D0AF4AD2F8883023F002
:1029D0000C03216C0B43C2F88830236813F0040FFA
:1029E00008D0A94AD2F8883023F03003616C0B4339
:1029F000C2F88830236813F0080F08D0A24AD2F832
:102A0000883023F0C003A16C0B43C2F888302368E0
:102A100013F0100F08D09C4AD2F8883023F440738A
:102A2000E16C0B43C2F88830236813F0200F08D004
:102A3000954AD2F8883023F44063216D0B43C2F8E5
:102A40008830236813F4007F08D08F4AD2F888308A
:102A500023F44023616E0B43C2F88830236813F4DB
:102A6000806F08D0884AD2F8883023F44013A16ED2
:102A70000B43C2F88830236813F0400F08D0824A15
:102A8000D2F8883023F44053616D0B43C2F888308C
:102A9000236813F0800F08D07B4AD2F8883023F4E3
:102AA0004043A16D0B43C2F88830236813F4807F44
:102AB00008D0754AD2F8883023F44033E16D0B43D7
:102AC000C2F88830236813F4801F08D06E4AD2F809
:102AD0009C3023F00303216E0B43C2F89C30236823
:102AE00013F4005F11D0684AD2F8883023F04063B5
:102AF000616F0B43C2F88830636FB3F1006F00F071
:102B00008A80B3F1806F00F08B80236813F4002F6C
:102B10001FD0A36FB3F5804F00F08B805A4AD2F8D4
:102B20009C3023F48043C2F89C30D2F8883023F0E4
:102B30004063A16F0B43C2F88830A36FB3F1006FFD
:102B40007FD0B3F5804F00F08280B3F1806F00F04A
:102B50008480236813F4802F0FD04B4AD2F888303A
:102B600023F04063E16F0B43C2F88830E36FB3F1A9
:102B7000006F7BD0B3F1806F7DD0236813F4804F5A
:102B80000ED0414AD2F8883023F04053D4F8801058
:102B90000B43C2F88830D4F88030B3F1805F75D031
:102BA000236813F4803F09D0374AD2F89C3023F0D1
:102BB0000403D4F884100B43C2F89C30236813F448
:102BC000001F09D0304AD2F89C3023F01803D4F803
:102BD00088100B43C2F89C30236813F0807F0ED01E
:102BE000294AD2F89C3023F44013D4F88C100B43BC
:102BF000C2F89C30D4F88C30B3F5001F4ED0384664
:102C000002B0BDE8F0813746C9E61F4A936D23F054
:102C100080539365C7E6D36843F48013D36074E7A9
:102C20000121201DFFF71EFD00283FF46EAF07466F
:102C30006BE7154AD2F89C3043F48043C2F89C30CD
:102C40007BE7114AD36843F48013D36081E70E4ACF
:102C5000D36843F48033D3607BE70121201DFFF765
:102C600001FD00283FF475AF074672E7D36843F4CF
:102C70008013D36081E70121201DFFF7F3FC0028BA
:102C80003FF47BAF074678E7001002400221201D89
:102C9000FFF7E8FC002883D0074681E7D36843F4B8
:102CA0008013D360ABE700BFF0B583B0002362E0D0
:102CB00085685E000324B44025EA0405CC68B4406E
:102CC0002C438460446824EA0C0C4C68C4F3001460
:102CD0009C4044EA0C0444605FE0DD08083550F88D
:102CE000256003F007044FEA840C0F2404FA0CF467
:102CF00026EA040E0C6904FA0CF444EA0E0440F8C7
:102D0000254061E0072400E0002404FA0EF42C437F
:102D10000CF1020C5C4D45F82C405C4CA568D4438A
:102D200025EA02064F6817F4801F01D042EA050623
:102D3000564DAE60ED6804EA05064F6817F4001FB3
:102D400001D042EA0506514DEE606D6804EA0506C1
:102D50004F6817F4003F01D042EA05064B4D6E6004
:102D60002D682C404E6816F4803F01D042EA0504DD
:102D7000464A146001330A6832FA03F400F0818095
:102D80004FF0010C0CFA03FC1CEA0202F2D04C6872
:102D900004F00304013C012C8AD94C6804F00304BC
:102DA000032C0CD0C4685D004FF0030C0CFA05FC3A
:102DB00024EA0C0C8C68AC4044EA0C04C4604C68F7
:102DC00004F00304022C88D004684FEA430E4FF04D
:102DD000030C0CFA0EFC24EA0C0C4C6804F00304FF
:102DE00004FA0EF444EA0C0404604C6814F4403F06
:102DF000C0D0274C256E45F001052566246E04F0F1
:102E000001040194019C4FEA930C0CF102051E4C45
:102E100054F8255003F003044FEA840E0F2404FAFB
:102E20000EF425EA0405B0F1904F3FF46DAF194C54
:102E3000A0421AD004F58064A04218D004F5806442
:102E4000A04216D004F58064A04214D004F580643A
:102E5000A04212D004F58064A04210D004F5806432
:102E6000A0423FF44FAF08244FE701244DE702246E
:102E70004BE7032449E7042447E7052445E70624F4
:102E800043E703B0F0BD00BF000001400004014073
:102E900000100240000400480AB18161704781625D
:102EA00070470000074B186800F4C060B0F5806FF1
:102EB00004D0D3F8800010F4807000D170474FF434
:102EC0000070FBE700700040002836D13E4B1B68C5
:102ED00003F4C063B3F5806F08D03B4AD2F880306A
:102EE00023F48073C2F8803000207047364AD2F84D
:102EF000803023F48073C2F88030136823F4C063F9
:102F000043F400731360314B1B68322202FB03F35E
:102F10002F4AA2FB03239B0C013300E0013B2A4A0A
:102F2000526912F4806F01D0002BF7D1264B5B69F8
:102F300013F4806F44D100207047B0F5007F08D0B3
:102F4000214A136823F4C06343F4806313600020B4
:102F500070471D4B1B6803F4C063B3F5806F08D046
:102F6000194AD2F8803043F48073C2F880300020D0
:102F70007047154AD2F8803043F48073C2F880302D
:102F8000136823F4C06343F4007313600F4B1B6892
:102F9000322202FB03F30E4AA2FB03239B0C0133F4
:102FA00000E0013B084A526912F4806F01D0002B07
:102FB000F7D1054B5B6913F4806F03D10020704794
:102FC0000320704703207047007000402400002059
:102FD00083DE1B43024A536843F4806353607047A7
:102FE00000700040024A536843F400735360704716
:102FF00000700040074AD36823F4E0631B041B0CF5
:10300000000200F4E060034343F0BF6343F4003385
:10301000D360704700ED00E000B5194BDB68C3F3E7
:103020000223C3F1070CBCF1040F28BF4FF0040CBE
:1030300003F1040EBEF1060F18D9033B4FF0FF3E1B
:103040000EFA0CFC21EA0C0199400EFA03F322EA75
:103050000303194300280BDB0901C9B200F16040EA
:1030600000F5614080F800135DF804FB0023E5E7FC
:1030700000F00F000901C9B2024B1954F4E700BF78
:1030800000ED00E014ED00E0002807DB00F01F0277
:10309000400901239340024A42F82030704700BFA4
:1030A00000E100E07047000090F83D30DBB2012BFA
:1030B00036D1022380F83D300268D36843F0010323
:1030C000D3600368194A93421CD0B3F1804F19D0E2
:1030D000A2F59432934215D002F58062934211D04A
:1030E00002F5806293420DD002F59432934209D0EA
:1030F00002F54062934205D01A6842F001021A605C
:103100000020704799680A4A0A40062A0AD0B2F598
:10311000803F09D01A6842F001021A60002070470F
:10312000012070470020704700207047002C0140AC
:1031300007000100704770477047704710B504469C
:1031400003681A6912F0020F11D0DA6812F0020F48
:103150000DD06FF002021A610123037703689B69A7
:1031600013F0030F79D0FFF7E6FF002323772368DE
:103170001A6912F0040F12D0DA6812F0040F0ED0A0
:103180006FF004021A610223237723689B6913F40A
:10319000407F68D02046FFF7CEFF002323772368C7
:1031A0001A6912F0080F12D0DA6812F0080F0ED068
:1031B0006FF008021A61042323772368DB6913F098
:1031C000030F57D02046FFF7B6FF0023237723686D
:1031D0001A6912F0100F12D0DA6812F0100F0ED028
:1031E0006FF010021A61082323772368DB6913F458
:1031F000407F46D02046FFF79EFF002323772368B9
:103200001A6912F0010F03D0DA6812F0010F3FD1F2
:1032100023681A6912F0800F03D0DA6812F0800F69
:103220003DD123681A6912F4807F03D0DA6812F066
:10323000800F3BD123681A6912F0400F03D0DA687F
:1032400012F0400F39D123681A6912F0200F03D011
:10325000DA6812F0200F37D110BDFFF76BFF204660
:10326000FFF76AFF81E72046FFF764FF2046FFF77C
:1032700063FF92E72046FFF75DFF2046FFF75CFF04
:10328000A3E72046FFF756FF2046FFF755FFB4E7B8
:103290006FF001021A612046FDF70EFBB8E76FF0F0
:1032A00080021A61204600F0ACF8BAE76FF4807231
:1032B0001A61204600F0A6F8BCE76FF040021A61E0
:1032C0002046FFF73AFFBEE76FF020021A61204662
:1032D00000F096F8C0E700000368304A904212D030
:1032E000B0F1804F0FD0A2F5943290420BD002F58E
:1032F0008062904207D002F58062904203D002F5CE
:103300009432904203D123F070034A681343234A56
:1033100090421ED0B0F1804F1BD0A2F59432904263
:1033200017D002F58062904213D002F5806290427D
:103330000FD002F5943290420BD002F540629042D9
:1033400007D002F58062904203D002F5806290427D
:1033500003D123F44073CA68134323F080034A69FE
:10336000134303608B68C3620B6883620B4B984204
:103370000FD003F5006398420BD003F540639842E9
:1033800007D003F58063984203D003F58063984229
:1033900001D10B690363012343617047002C014095
:1033A00060B310B5044690F83D3013B3022384F89F
:1033B0003D30214651F8040BFFF78EFF012384F8BE
:1033C000483084F83E3084F83F3084F8403084F848
:1033D000413084F8423084F8433084F8443084F833
:1033E000453084F8463084F8473084F83D3000207A
:1033F00010BD80F83C30FFF755FED7E7012070473D
:10340000704770477047F8B50668346A04F00F07D4
:10341000C4F34343C4F30A14022B00D0F8BD05469D
:10342000002CFBD02C2303FB0703596C0029F5D09B
:103430002C2303FB07031A6D2244DB6C9A4206D946
:103440002C2000FB0755042385F86030E6E7224670
:10345000304600F0EAFD2C2303FB07535A6C22444C
:103460005A641A6D22441A6506EB4716D6F81025E1
:10347000C2F3C942B3F84030A342CFD1002ACDD025
:10348000D6F8003523F0804343F00043C6F80035FA
:103490002C2303FB075595F8543083F0010385F87E
:1034A0005430BBE7F0B585B004469DF828509DF830
:1034B0002C60BDF8307090F8F802012837D0012058
:1034C00084F8F8022C2000FB01404FF0000C80F83B
:1034D0003DC080F83830A0F8407080F8391080F88E
:1034E0003F6002F07F0C80F83AC012F0800F16D1D6
:1034F0002C2000FB01404FF0000C80F83BC02C203A
:1035000000FB014080F83C5002970196009520682E
:1035100000F0AFFE002384F8F83205B0F0BD2C2097
:1035200000FB01404FF0010C80F83BC0E7E70220B0
:10353000F3E790F8F832012B0BD010B504460123C5
:1035400080F8F832006800F0B6FF002084F8F80236
:1035500010BD0220704700284DD070B58AB00446D7
:10356000056890F8F932002B40D0032384F8F93233
:10357000EB6B13F4807F01D100232361206800F0FE
:10358000EBFCA4465CF8106BEE46BCE80F00AEE81E
:103590000F00BCE80F00AEE80F009CE803008EE8C7
:1035A0000300251D95E80E00304600F0B3FC012114
:1035B000206800F06CFDA4465CF8106BEE46BCE899
:1035C0000F00AEE80F00BCE80F00AEE80F009CE86B
:1035D00003008EE8030095E80E00304600F088FDF9
:1035E000012384F8F93200200AB070BD80F8F83267
:1035F000FDF77CFAB9E70120704770B59DF81050CF
:10360000BDF818604FF02C0C0CFB010C8CF83B2023
:103610008CF83F307DB964464FF0030C84F842C00B
:103620009DF81CC084F83DC0032B00F28180DFE8C8
:1036300003F00A7929512C2404FB01044FF0020CF9
:1036400084F842C0F0E7012D72D1002A70D12EB962
:103650002C2303FB0103012283F855202C2303FBB9
:10366000010393F8553033B92C2303FB01030022E7
:1036700083F842205CE02C2303FB0103022283F841
:10368000422055E092B92C2303FB010393F85530F7
:103690002BB92C2303FB010383F8422048E02C23A1
:1036A00003FB0103022283F8422041E02C2303FBA9
:1036B000010393F8543033B92C2303FB0103002298
:1036C00083F8422034E02C2303FB0103022283F819
:1036D00042202DE092B92C2303FB010393F85530CF
:1036E0002BB92C2303FB010383F8422020E02C2379
:1036F00003FB0103022283F8422019E02C2303FB81
:10370000010393F8543033B92C2303FB0103002247
:1037100083F842200CE02C2303FB0103022283F8F0
:10372000422005E02C2303FB0103002283F8422002
:103730002C2301FB03F3C218059C5464D6640024B7
:1037400082F86040146582F8391082F8614003F114
:1037500038010144006800F017FE70BD70477047E3
:1037600030B583B004460568D5F840340193D5F8E8
:1037700040340093009B23F02E030093019B13F031
:10378000020F07D0019B13F0010F25D1009B43F0DE
:1037900002030093019B13F0080F10D0009B43F02D
:1037A00008030093019B13F0040F2DD0A369022B93
:1037B00015D0E368012B22D02046FFF7CFFF019BF5
:1037C00013F0200F03D0009B43F020030093009BD5
:1037D000C5F8403403B030BD08F0BCFCD6E7019B0F
:1037E00003F4C023B3F5802F04D00121206800F03A
:1037F000CFFCE1E70221206800F0CAFCDCE74EF6CE
:103800006022C5F80424D7E72046FFF7A8FFD6E7D3
:10381000F8B504460E46076807EB411707F5A065A3
:10382000AB6813F0040F0AD1AB6813F4807F3ED16C
:10383000AB6813F0200F47D02023AB600AE00423CD
:10384000AB602C2303FB0103062283F86120006890
:1038500000F031FEAB6813F4007F66D1AB6813F063
:10386000010F00F092802C2303FB0643012283F812
:1038700061200021D965AA6093F83F30002B5CD00D
:10388000022B5AD0032B01D0012B5CD1D7F8003585
:1038900043F00053C7F800352C2303FB06430122F5
:1038A00083F860203146204608F080FC4BE04FF45E
:1038B0008073AB602C2303FB0103072283F8612094
:1038C000006800F0F8FDC5E7AB6813F0080F13D1EE
:1038D000AB6813F4806F1BD1AB6813F0800FB9D0C5
:1038E0008023AB602C2303FB0103062283F86120B5
:1038F000006800F0E0FDADE70823AB602C2303FB7C
:103900000103052283F86120006800F0D4FDA1E7DF
:103910004FF48063AB602C2303FB0103082283F880
:103920006120006800F0C7FD94E73146206800F090
:10393000C2FD4FF40073AB60F8BD3146206800F063
:10394000BAFD1023AB602369012B09D02C2101FBA8
:10395000064494F8543083F0010384F85430EBE7C4
:103960002C2303FB06439A6CB3F84030B2FBF3F30D
:1039700013F0010FE0D02C2303FB064494F85430DD
:1039800083F0010384F85430D6E7AB6813F0020FDC
:1039900060D02C2303FB064393F86130012B13D036
:1039A000052B23D0062B28D0082B26D0032B42D062
:1039B000072B0FD12C2303FB0643DA6D0132DA65A6
:1039C000042283F8602005E02C2303FB0643012238
:1039D00083F860200223AB602C2303FB064393F89B
:1039E00060203146204608F0E1FBA5E72C2303FBCD
:1039F0000643052283F86020ECE72C2202FB0642F6
:103A0000D36D0133D365022B06D913460022DA6544
:103A1000042283F86020DDE72C2303FB0643022207
:103A200083F86020D7F8003523F0804343F000434B
:103A3000C7F80035CEE72C2303FB0643022283F8A8
:103A40006020D7F8003523F0804343F00043C7F8E7
:103A50000035BFE7AB6813F0100F3FF46DAF2C23B8
:103A600003FB064393F83F30032B11D00BB1022B1D
:103A70000BD12C2303FB06430022DA65032283F8D3
:103A800061203146206800F016FD1023AB6053E73B
:103A90002C2303FB06430022DA653146206800F040
:103AA0000AFDF2E738B5036803EB411202F5A065A1
:103AB000AC6814F0040F19D1AC6814F0200F21D0B9
:103AC0002023AB602C2303FB010393F83D30012B33
:103AD00017D12C2303FB0103002283F83D2002228F
:103AE00083F86020006800F0E6FC0AE00423AB6085
:103AF0002C2303FB0103062283F86120006800F0F9
:103B0000DAFC38BDAC6814F4007F1FD1AC6814F047
:103B1000010F22D02C2303FB01030022DA65AB68DE
:103B200013F0400F07D02C2303FB0103012283F87D
:103B30003D204023AB600122AA602C2303FB01033C
:103B400083F86120006800F0B6FCDAE74FF40073F8
:103B5000AB60006800F0AFFCD3E7AC6814F0400F36
:103B600037D1AC6814F0080F44D1AC6814F0100FD2
:103B70004CD1AC6814F0800F56D1AC6814F4806F4F
:103B80005ED1AB6813F0020FBBD02C2303FB010303
:103B900093F86130012B60D0032B00F09280042B4E
:103BA00000F09F80052B00F0A380062B02D0082B8D
:103BB00040F08D802C2404FB0104E36D0133E365A8
:103BC000022B40F29C800022E265042284F86020EF
:103BD0007DE02C2202FB0100042280F861200122FA
:103BE00080F83D200022C265184600F064FC4023A6
:103BF000AB6086E70823AB602C2303FB010305229F
:103C000083F86120006800F056FC7AE72C2202FB62
:103C100001000022C265032280F86120184600F0EE
:103C20004AFC1023AB606CE72C2202FB0102062049
:103C300082F86100184600F03EFC8023AB6060E72C
:103C40002C2202FB0102082082F86100184600F0D5
:103C500032FC4FF48063AB6053E72C2303FB01037A
:103C6000012283F8602093F83F30023BDBB293429D
:103C70002DD8046944B92C2303FB010393F8552084
:103C800082F0010283F85520012C20D12C2303FB64
:103C90000103DB6CDBB12C2202FB0102B2F84020F5
:103CA0001344013BB3FBF2F313F0010F0FD02C23AD
:103CB00003FB010393F8552082F0010283F855209D
:103CC00005E02C2303FB0103022283F8602002237A
:103CD000AB602C2303FB010393F8602008F066FA25
:103CE0000FE72C2303FB0103022283F86020EEE799
:103CF0002C2303FB0103052283F86020E7E72C2334
:103D000003FB0103022483F86040D2F8003523F05E
:103D1000804343F00043C2F80035D8E7F8B50446C5
:103D20000568284600F0AFF9012800D0F8BD2068EA
:103D300000F0A5F90028F9D0206800F0A0F910F4EF
:103D4000001F03D023684FF400125A61206800F06E
:103D500096F910F4801F03D023684FF480125A6143
:103D6000206800F08CF910F0806F03D023684FF0CA
:103D700080625A61206800F082F910F0020F02D0D0
:103D8000236802225A61206800F079F910F0005F80
:103D900008D023684FF000525A61D5F8403413F030
:103DA000010F1DD0206800F06AF910F0807F26D145
:103DB000206800F064F910F0080F24D1206800F0AA
:103DC0005EF910F0100F25D1206800F058F910F0BE
:103DD000007FABD0206800F069FB074600262CE08E
:103DE0001021284600F0BEF8284600F0E3F8012133
:103DF000206800F0CDF9204608F0C2F9D2E720464D
:103E0000FFF7AEFCD4E7204608F0CEFA236808227C
:103E10005A61D3E72268936923F010039361204627
:103E2000FFF7F1FA2268936943F010039361CBE73F
:103E3000F1B22046FFF736FE0136A368B34212D92D
:103E400006F00F0327FA03F313F0010FF4D005EB8C
:103E50004613D3F8003513F4004FE9D0F1B22046F1
:103E6000FFF7D6FCE8E723684FF000725A615DE780
:103E700090F8F832012B0ED010B50446012180F8DD
:103E8000F812006800F0C2F9206800F05FF8002026
:103E900084F8F80210BD0220704708B5006800F0F1
:103EA00096F908BD2C2303FB0100006D704708B58F
:103EB000006800F0D9F908BD08B5006800F0C9F93C
:103EC00008BD000082B000230193019B01330193E0
:103ED000019A0F4B9A4215D80369002BF5DA00239B
:103EE0000193036943F001030361019B01330193D3
:103EF000019A074B9A4208D8036913F0010FF4D1D5
:103F0000002000E0032002B070470320FBE700BF61
:103F1000400D030084B010B504460DF10C0C8CE884
:103F20000E00C36843F04003C360FFF7CBFF0C9B58
:103F30003BB9A36B43F48033A363BDE8104004B0E6
:103F40007047A36B23F48033A363F6E7836843F0E1
:103F50000103836000207047836823F001038360BE
:103F60000020704782B000230193019B013301932D
:103F7000019A0F4B9A4215D80369002BF5DA0023FA
:103F80000193890141F020010161019B01330193FB
:103F9000019A074B9A4208D8036913F0200FF4D115
:103FA000002000E0032002B070470320FBE700BFC1
:103FB000400D030082B000230193019B0133019364
:103FC000019A0E4B9A4213D80369002BF5DA0023AD
:103FD000019310230361019B01330193019A074B65
:103FE0009A4208D8036913F0100FF4D1002000E0C2
:103FF000032002B070470320FBE700BF400D030021
:1040000010B503F1030E4FEA9E0E4FF0000C08E0CE
:1040100000EB023303F5805351F8044B1C600CF1A4
:10402000010CF445F4D3002010BD00B583B08446E4
:1040300008464FEA920E02F00302002305E00CF559
:104040008051096840F8041B01337345F7D39AB1D6
:104050000CF5805CDCF8003001934FF0000C5FFA47
:104060008CF3D900019BCB4000F8013B0CF1010C13
:10407000013A92B2002AF2D103B05DF804FB426922
:10408000806910407047406900F00100704738B502
:104090000546C36823F0C043C360012913D019BB90
:1040A000C36843F08043C36000240120FDF7ACFCEB
:1040B00001342846FFF7E7FF08B1312CF5D9322C3F
:1040C00014D0002038BDC36843F00053C3600024FF
:1040D0000120FDF799FC01342846FFF7D4FF0128A1
:1040E000EDD0312CF4D9EAE70120EBE70120E9E734
:1040F00084B038B5044605AD85E80E000023C0F84D
:10410000003E836B23F400138363836B23F400333B
:104110008363D0F8003423F00403C0F80034102186
:10412000FFF720FF054600B101252046FFF742FFBB
:1041300000B10125002209E004EB42134FF0FF31EA
:10414000C3F808150021C3F80C150132069B9342F1
:10415000F2D80023A3614FF0FF33636180236362D1
:1041600003F5C003A362084BC4F80031A36943F010
:104170001003A361A269054B1343A3612846BDE860
:10418000384004B0704700BFE0004000080020A3A2
:1041900000F5806CD0F8003423F00303C0F800343D
:1041A000D0F8003401F003021343C0F800340129B1
:1041B00003D0022906D0002070474BF68033CCF89C
:1041C0000430F8E741F27073CCF80430F3E730B50F
:1041D00083B0044600250195D0F840340193019B3B
:1041E00023F02E030193019B43F48073C0F8403405
:1041F0006420FDF709FC019B23F48073C4F840346C
:104200000A20FDF701FC284603B030BD82B0002330
:104210000193D0F840340193019B23F02E030193C6
:10422000019B13F4805F01D101290CD0019B13F491
:10423000805F05D021B9019B23F48053C0F840343E
:10424000002002B07047019B43F48053C0F8403413
:10425000ECE782B000230193D0F840340193019839
:10426000C0F3414002B0704700F58060806880B2C2
:1042700070472DE9F84391461C469DF8245000EB09
:10428000411606F5A0634FF0FF329A60032D6ED8F9
:10429000DFE805F0025F025140F29D42DA6019F05A
:1042A000800F42D10027DA6842F00202DA60D0F8CB
:1042B000183401F00F01012202FA01F11943C0F88C
:1042C0001814836943F00073836119F0800F50D193
:1042D0004FF00008FFF7BDFF9DF82030022B4BD0B8
:1042E0000021A30503F0FE534FEAC92909F4F04960
:1042F00043EA0903AC0404F440242343BDF8282016
:10430000C2F30A02134343EA08030B43C6F800351D
:10431000032D01D0012D05D1D6F8003543F000530F
:10432000C6F800353846BDE8F883DA6842F4807292
:10433000DA600027B7E740F29D62DA6019F0800F7B
:1043400001D10027AFE7DA6842F48072DA60002713
:10435000A9E740F22522DA6019F0800F01D1002789
:10436000A1E7DA6842F4C072DA6000279BE7012710
:1043700099E74FF40048ADE7022802D04FF400312E
:10438000AFE70021ADE7000010B582B04B784A6975
:1043900082B10C8902EB040C0CF1FF3CBCFBF4FC79
:1043A0001FFA8CFCBCF5807F06D924020C614FF407
:1043B000807C01E04FF0010CCC78002C4DD00A89B4
:1043C00002FB0CF20A610A69C2F31202364C04EADB
:1043D000CC4C42EA0C0291F80AC04FEA4C7C0CF03B
:1043E000C04C00EB431342EA0C02C3F8102500F561
:1043F000806CDCF8082012F0010F0CBF4FF0010EAA
:104400004FF0000ED3F8004524F00054C3F80045E7
:10441000D3F8002542EA4E72C3F80025D3F80025F0
:104420000192019A22F080420192CA78BAB1019AAF
:1044300042F400420192019A42F000420192019A34
:10444000C3F80025CB78FBB94B69EBB1CA79032AD5
:1044500015D8DFE802F0091C091C0A61B3E7019ACC
:1044600022F400420192E6E70333C26A92B2C3F338
:104470008F039A4203D2836943F0200383618B8ABE
:104480004A78C968FFF7BCFD002002B010BD0333B5
:10449000DCF8102092B2C3F38F039A42EFD2836903
:1044A00043F080638361EAE70000F81F00F5806055
:1044B000406980B2704710B483B00023019300EBD1
:1044C000411101F5A06CD1F80035C3F38143D1F857
:1044D0000025846814F0200F02D0D20F002A51D09A
:1044E00023B3022B22D0D1F8003543F08043C1F82A
:1044F0000035D0F8103413F47F0F48D1D1F80035CF
:1045000023F00043C1F80035D1F8003543F00043F3
:10451000C1F80035019B01330193019BB3F57A7F0C
:1045200030D8DCF80030002BF4DB2BE0D1F800357C
:1045300043F08043C1F80035836813F0200F21D188
:10454000C36A13F47F0F17D1D1F8003523F000436D
:10455000C1F80035D1F8003543F00043C1F800350B
:10456000019B01330193019BB3F57A7F0AD8DCF8F4
:104570000030002BF4DB05E0D1F8003543F00043B8
:10458000C1F80035002003B05DF8044B7047D1F846
:10459000003543F00043C1F80035F3E7034AD2F891
:1045A000883043F47003C2F88830704700ED00E0B3
:1045B0002DE9F04F8FB0054607921F4600230D935B
:1045C00012680692D0F868310133C0F8683154019E
:1045D0008B46002940D0AB6A6E6D03FB06F6002EB9
:1045E00000F04C82B4FBF6F906FB1946B6FBF3F378
:1045F0000893BBF1000F5BD0DBF850407CB1DBF8D7
:104600005480C8450BD8DBF85800DBF85C20DBF899
:104610004010DBF844309A4208BF88423DD0DBF8B6
:1046200034404FF000082146C84546D2012940F2E7
:104630002A8205F50053D3F8A8348B4240F2258234
:104640000DAA284603F011FC0346002840F017820B
:104650000D9908F10108E7E7436E002BBBD1836A8F
:10466000B4FBF3F3826C99180E4609918368032218
:1046700002920122019200930A46002304F0B0FB4B
:104680000346002840F0FB81AA6CB21AA96A01FB1C
:1046900012410890814604462CE0DBF86020DBF8EC
:1046A00048309A42BBD10023CBF850302146BBE7BB
:1046B0006C6F4FF000082146B6E70C462B6D8A1E42
:1046C000696D01FB0233089A99180991AB680322BE
:1046D00002920122019200930A460023284604F028
:1046E0007FFB0346002840F0CA81AB6AB6FBF3F1BA
:1046F00003FB1161AA6856180023099838647B648B
:10470000B964BB613B713B680593F37A0F2B0CD006
:104710004FF0010ABAF1010F00F0FE800023059965
:104720000B7018461A468E460AE1535CE52B00F0E2
:10473000F08003F01F00864600EB400200EB82028F
:10474000A2F10D03FE2B12D9B8614FF0010A0A94B1
:10475000CDF82C9030467646DDF81890A8465546A0
:10476000DDF824A0CDF824B0DDF820B0ACE0381D91
:104770000590013238684FF0000C00F803C0013397
:104780009A4211D9FF2BF5D90A94CDF82C903046D6
:104790007646DDF81890A8466546DDF824A0CDF8E9
:1047A00024B0DDF820B08FE04FF0000A0A94CDF875
:1047B0002C9030467646DDF81890A8465546DDF830
:1047C00024A0CDF824B0DDF820B07DE0BE613A68C9
:1047D00005924FF0010E10F803C00CF1FF32D2B277
:1047E000FD2A0AD804EB440204EB82022A44FE2A82
:1047F00016D8396801F802C0013502331F2B1BD8C7
:104800000B2BFAD01A2BF8D00D2B0FD0C2185278E0
:10481000002AE0D0FF2AD9D1C25CFF2AD6D1DAE73C
:104820000699BE613B680593012553E00C23E4E73C
:10483000AE4601230691E1E7069975464AE0D8F8AD
:104840006430002B4ED10AF1010AD8F84830D8F86C
:104850004C201344534521D8082310E10DAA0A998E
:10486000404603F002FB8346002840F010810D9A79
:104870000A92012A40F20D8108F50053D3F8A834BA
:10488000934240F208810B9B01330B93D8F85030D0
:10489000A2F1020AD8F8542002FB0A3AD8F80830EC
:1048A00003220292012201920093524600234046C5
:1048B00004F096FA0146002840F0EF80D8F808008E
:1048C000084409F10109BCB1047804F01F04013C5B
:1048D000002DADD02031D8F828309942EED3099B75
:1048E000002BACD0D8F85430013B5B45B6D90AF167
:1048F000010A0BF1010BD1E7AA460A9C0646CDF846
:104900001890DDF82C904546DDF824B001237B613A
:1049100000E74FF0010AFDE600237B61FEE602207E
:1049200016E060B901200AE0B0B92E210EF802109D
:10493000013202209CF800100EF8021001320133FF
:104940000A2B0CD806EB030CF15C41B12E29E6D002
:104950002029E6D0082BE7D00128EBD1E5E77B69D9
:104960001BB1059B1B78E52B5ED0059B1B7813B90B
:104970003378202B65D0002305998B54F37A3B774D
:10498000337B7B77BAF1000F02D013F0080F6CD1A4
:10499000737BBB7706F10E0003F048FA386206F12C
:1049A000100003F043FA786206F1120003F03EFAB9
:1049B000B86206F114006B6E002B59D100237B63A3
:1049C00006F1160003F032FAF86206F1180003F05F
:1049D0002DFA386306F11A0003F028FA7B6B0344C2
:1049E0007B6306F11C0003F02BFA0023B863FB6322
:1049F0003B657B6500200021C7E916013B66069BED
:104A0000FB64079A1360BBF1000F48D0CBF850400D
:104A1000CBF85490DBE91023CBE91623DBF84830C0
:104A2000CBF8603000232AE03B68E52119700023B1
:104A300005990B7099E7B35C8B5401320A2AFAD9B5
:104A400099E700220599F9E701330B2BA0D800EB79
:104A5000030CC25C002A9BD0A2F14101C9B2192902
:104A6000F2D820328CF80020EEE700230598ECE71E
:104A700003F0DCF9786300047863A1E702231846A9
:104A80000FB0BDE8F08F0823F9E70823F7E70346E6
:104A9000F5E70823F3E70823F1E70346EFE70023F0
:104AA000EDE700002DE9F04F8FB080460D46D0F8BD
:104AB0006C310133C0F86C310B681B78E52B16D0D4
:104AC00000230893D5F848902A6C6B6C9346D8F86D
:104AD0005010914216D8501AD8F85440B0FBF4F058
:104AE000861C059600FB0411511A07910DE00B7905
:104AF000E52B02D000230893E4E700230B71012388
:104B00000893DFE7002105910791D8F808100320EA
:104B10000290012001900091404604F061F90346A3
:104B2000002840F03283D8F808200692AC6C144478
:104B30006E69FEB9AB6933B143F04003DBB2227852
:104B4000934200F0938233469DE212B102F1010ECE
:104B5000049701322868815C89B12E29F5D020297B
:104B6000F7D0072FF5D807F13800684400F80C1C7F
:104B70000137EEE78646049002460746EAE78A4692
:104B8000394607E001F138066E444FF0200C06F874
:104B90000CCC01310A29F5D9BEF1000F20D010F854
:104BA0000E1019B10EF1010E8DF8341010F80E1020
:104BB00019B10EF1010E8DF8351010F80E1019B163
:104BC0000EF1010E8DF83610049906E001F1380659
:104BD0006E44202706F80C7C01310729F6D9049F82
:104BE000AB49A1FB0261890801EB410601EB86019B
:104BF0008A4234D1A64EA6FB021296089C461A465B
:104C000004930A2A49D8049B02F13801694411F837
:104C10000C1C20292DD110F80C20002A40D02E2A5F
:104C200023D01A46BEF1000F03D09DF8341020297E
:104C30003BD010F80C1009B9002A5DD1D5F84CE032
:104C40001FFA8EFC032F00D90327781C07F13802C6
:104C50000DEB02077E2207F80C2C1A4633E08C4E2F
:104C6000A6FB0226B6080136C8E70CF1010C0822A3
:104C7000CAE709910493082A08D010F80C10099B80
:104C80008B420FD101320CF1010CBAE710F80C1075
:104C90002E29F2D10CF1010CEFE7049B0122C1E7B0
:104CA0000122BFE7049B1A46BCE71A46C1E74FEA58
:104CB0001C31092918D9373100F138076F4407F83A
:104CC0000C1C01300132032A16D8002AEFD0012A29
:104CD00004D0022A05D00EF00F01EAE7CCF303213D
:104CE000E7E7CCF30311E4E7303100F138076F4414
:104CF00007F80C1C0130E5E700228DF837209DF8FD
:104D00002C20E52A01D01A460CE0089A002AFAD194
:104D10008F228DF82C20F6E702F13800684400F865
:104D20000C1C01320A2A0CD802F13801694411F82E
:104D30000C1CA1F16100C0B21928EDD82039C9B20C
:104D4000EAE72A79DAB9574658E002F138016944AE
:104D5000202001F80C0C01320A2AF6D91A4619460D
:104D6000072A0ED8681800792E280AD048B102F117
:104D700038076F4407F80C0C01310132F0E71A468E
:104D8000EAE76A1812791AB3013108220A2A1FD8F1
:104D900068180079E0B102F138076F4407F80C0C8D
:104DA00001310132F2E702F13800684400F80C1CCE
:104DB00001320A2A0ED802F13801694411F80C1C9C
:104DC000A1F16100C0B21928EDD82039C9B2EAE7D3
:104DD0001A46EEE79DF82C20E52AB4D18F228DF8F3
:104DE0002C20B0E77A0842EAC71203F1380169447F
:104DF00011F80C1C51FA82F2D7B201330A2BF1D907
:104E000046F040032370CDF810A0DDF818C0DDF89F
:104E10001CA028E023702CE02968895CE154591C0F
:104E20004FF0000E04F801E02968895C01B9FF2009
:104E3000013202331F2B0DD80B2BFAD01A2BF8D0CE
:104E40000D2B05D00028E7D0E054591C6054EBE747
:104E50000C23EEE7203409F12009D8F828304B451F
:104E600018D9013E2670002E68D09DF82C30E52B15
:104E7000D0D00F23E372002323736773A376E37606
:104E800006EB460206EB82020D3A04980123D1E7B5
:104E90004FECC44E0323029301230193CDF800C0CD
:104EA0005A460023404604F01CF90346002840F00F
:104EB0006C81D8F850305B4527D8D8F85430013B86
:104EC000534504D90BF1010B0AF1010A22E00AAAA9
:104ED0000599404602F0C9FF8246002840F07F81D4
:104EE0000A9A0592012A40F27C8108F50053D3F812
:104EF000A834934240F27781D8F85030A2F1020BE7
:104F0000D8F8542002FB0B3B04E00BF1010B5B458E
:104F100040F26B81D8F808300322029201220192FC
:104F200000935A460023404603F05AFF814600286A
:104F300040F05D81D8F80840A44692E7CDF818C04B
:104F40002B796BB1334610E006F138026A4412F84F
:104F50000C2C03F8012B01360A2EF5D91C46CBE0A8
:104F60002346F9E72022E25401330A2BFAD93346CB
:104F7000072B08D8AA1912792E2A04D01AB1E254A4
:104F800001360133F4E7AB191B7953B1013608231D
:104F90000A2B06D8AA1912791AB1E2540136013344
:104FA000F6E70B34A8E0203309F12009D8F82820CF
:104FB0004A4509D90137AA69BA425ED92A681278E6
:104FC000E52AF0D11A70EEE703230293012301933F
:104FD00000915A460023404604F083F80346002817
:104FE00040F0D380D8F850305B4526D8D8F85430FC
:104FF000013B534504D90BF1010B0AF1010A21E0F1
:105000000AAA2146404602F030FF8246002840F0BE
:10501000F0800A9C012C40F2EE8008F50053D3F892
:10502000A834A34240F2E980D8F85030A4F1020B32
:10503000D8F8542002FB0B3B04E00BF1010B5B455D
:1050400040F2DD80D8F8083003220292012201925A
:1050500000935A460023404603F0C2FE81460028D2
:1050600040F0CF80D8F808301946A3E737462346EA
:105070000699DDF81CA0059C9DE71C46069162E59B
:105080002022E25401330A2BFAD9334602E02E22C1
:10509000E25401332A68D25C2E2AF8D0CAB91E46DF
:1050A0002B689B5D3BB30136082217E0A354013601
:1050B0000132072AF4D82B689B5D2E2BF0D0002BF1
:1050C000EED0A3F16101C9B21929EFD8203BDBB2C0
:1050D000ECE73246EDE7A354013601320A2A0AD83A
:1050E0002B689B5D3BB1A3F16101C9B21929F2D8CC
:1050F000203BDBB2EFE70B342B7F23706B7F6370B9
:10510000AB7FA370296AE01C02F095FE696A601DFE
:1051100002F091FEA96AE01D02F08DFE04F1090083
:10512000D8F86430002B34D0E98E02F084FEE96AAE
:1051300004F10B0002F07FFE296B04F10D0002F078
:105140007AFE696B04F10F0002F075FEA96B04F1A1
:10515000110002F080FE0323029301230193069BBA
:1051600000935A460023404603F0BBFF034660B954
:1051700098F8E0234AB12C6C696CD8F8B002D8F8E2
:10518000B422914208BF844207D018460FB0BDE850
:10519000F08F002102F04FFEC9E7A96CD8F8B822C1
:1051A0009142F2D16A6BC8F8A422D5E90E01C8E990
:1051B000AA012A7F88F88C22EA6AC8F89C222A6B06
:1051C000C8F8A0226A7F88F88D22AA7F88F88E22EC
:1051D0002A6AC8F890226A6AC8F89422D5E703467A
:1051E000D3E70823D1E70823CFE70823CDE7034619
:1051F000CBE70346C9E70823C7E70823C5E7082329
:10520000C3E70346C1E700BF2DE9F04F91B08046E8
:1052100009919346D0F874310133C0F874310023FA
:105220005361106803782E2B02D00024214645E0FC
:1052300043782E2B00F05582002421463EE0202B9F
:1052400038D02E2B4FD0E52B58D013F0800F34D10F
:105250007E2B32D02D2B30D05F2B2ED07D2B2CD01F
:105260007B2B2AD0282B28D0292B26D0602B24D08A
:10527000272B22D0212B20D0232B1ED0242B1CD037
:10528000262B1AD0402B18D05E2B16D0252B14D0ED
:10529000A3F12B02D2B2012A08D93B2B06D03D2B19
:1052A00004D05B2B02D05D2B40F01D820123CBF894
:1052B000143002E00123CBF814300131435C1BB3FE
:1052C000A3F14102D2B2192AF7D9A3F13002D2B226
:1052D000092AF2D9A3F16102D2B2192AAFD8012367
:1052E000CBF81430E9E72CB961B90123CBF81430BD
:1052F0000C46E2E70123CBF81430DEE70123CBF8BC
:105300001430DAE70C46D8E72CB10B1B042B02D97A
:105310000123CBF814300C290DD8DBF8143053B925
:10532000082C02D8091B08292BD90123CBF81430EB
:105330004FF0020A0FE0B44BA3FB01239B0803EBE1
:10534000430203EB8203994214D1AF4BA3FB01311B
:10535000890801F1010A099A13681B78A3B1976BB8
:105360000023136502230E930023089307933E4600
:1053700091463AE0A44BA3FB0131890801F1020AEE
:10538000E9E74FF0010AE6E7D8F8787000230E93BA
:105390001A46E9E79BF80410002937D034E0B742F9
:1053A00048D00E9B9B1B013353454BD20E9B0133C0
:1053B0000E93BB4215D3D8F8282002EB4A13013BC9
:1053C000B3FBF2F3D8F854201344013BB3FBF2F3E0
:1053D0000693B9F1000F5FD0D8F87C30069A93425B
:1053E0005FD20E9BBB4280F07A815B460EAA494693
:1053F0004046FFF7DDF80590002840F07681DBF8A5
:1054000000201378E52BC5D0002B43D1BAF1010F52
:10541000C5D9002BC3D1CBF81430E5211170DBF8CE
:105420000020537059464046FFF73CFB03460028D6
:10543000B5D05DE10E9EDBF840300793DBF84830D5
:105440000893AEE70023079ACBF84020CBF844300E
:10545000089ACBF848208BF81D308BF81E30EFF3FC
:10546000108272B6694B1B68CBF82030684B1B6802
:10547000CBF82430CBF8283082F31088BAF1010F32
:1054800004D00123CBF81430059B31E10023CBF885
:105490001430F9E73E4689E7D8F86430002BA0D0F5
:1054A0009AE7D8F84050D8F880401346059A0A92F7
:1054B0000B97CDF830900D961E46002E00F0AA8076
:1054C000013E00E00224002D00F011810FAA2146C8
:1054D000404602F0CAFC0346002840F00981013D25
:1054E0000F9B33B10134D8F840300233A342E9D9DD
:1054F000E9E7621CC8F88020D8F8403002339A42AD
:1055000002D30223C8F88030D8F85030A4F1020941
:10551000D8F8547007FB0939D8F8083003220292F2
:105520000122019200934A460023404603F058FCB2
:105530000346002840F0DC80D8F80810D8F828206E
:105540009A4204D9002241F8042B0433F6E7D8F834
:105550000830032202920122019200934A4600235E
:10556000404603F0BEFD0346002840F0C180012FF5
:1055700009D8059B03B905940A9B002B3AD10A94DC
:10558000D8F8804099E7013F00230122029200975A
:1055900001934A44404603F09BFA0346002840F03A
:1055A000A780002FE5D0D8F8B0310133C8F8B0316A
:1055B0000123C8F888309022C8F88C20D8F8082039
:1055C000C8F8902007EB0902C8F89420C8F8983072
:1055D0000322C8F8B820C8F8B030D8F8BC3040462C
:1055E00098470023C8F8B030D8F88C30002B7FD112
:1055F000013FD6E722461946404602F0B0FD034679
:105600000028BCD074E000BF4FECC44EF8770020F7
:10561000E47700200B9FDDF830900D9E08F50053D5
:10562000D3F8AC240A99404602F099FD05460028BB
:1056300062D1B9F1000F1DD0D9F83440294608F5E0
:105640000053D3F8A834A34217D90FAA21464046E5
:1056500002F00BFC01350346002849D1012C4DD93D
:105660000F9BA3424CD0D8F840202146AA4249D3F0
:105670001C46E4E7D8F87440E0E7D8F87C30069A96
:105680009B1AC8F87C30D8F8543002FB03F3D8F8E2
:10569000282002FB03F307EB5317DBF800301B78DD
:1056A000E52B13D03E46099A97630023D363D8F8BD
:1056B000643013B1B9F1000F0ED0059A404602F0E4
:1056C0004EFD034600283FF48CAE11E09BF80430F9
:1056D000002BE8D03E46E6E7C8F87870EDE70A23ED
:1056E00006E00C2304E00C2302E0059B00E00A2303
:1056F000184611B0BDE8F08F0346F9E70323F7E73A
:105700000323F5E70323F3E700230B7003785C2BF7
:1057100001D02F2B02D1013000E001300378202B83
:10572000FBD0002302784AB15C2A07D02F2A05D08B
:10573000FF2B03D00130CA540133F3E70022CA54CF
:1057400023B1013B02E00022CA54013BCA5C202A7B
:10575000F9D0037803B170470020FCE72DE9F04F42
:10576000A5B004468B46154600222292D0F870213F
:105770000132C0F8702100F69C020292049313B12A
:105780001B6800221A709BF800305C2B22D02F2B54
:1057900032D0A24B1B68D3F8907067B13B681B787E
:1057A00073B37022394606A809F01EFE07F1700394
:1057B000039306AF11E0D4F8E0341B7823B37022D2
:1057C00004F59C6106A809F00FFE04F5AA63039393
:1057D00006AF02E0002303931F4694F8E0339BB327
:1057E0009BF800305C2B24D02F2B24D0039B002B64
:1057F00059D00023039846E0002303931F46ECE7AB
:10580000002303931F46E8E70397E6E72F220CE007
:105810008A4212D10133FE2B0FD81BF8032062B14C
:10582000E11891F8E0135C2AF0D05C29F0D12F2127
:10583000EEE70023EFE70023EDE71BF80320234406
:1058400093F8E0339A425ED0002384F8E033B84600
:10585000CDF814B02E9B0BB1C3F800B00299584696
:10586000FFF752FF8346B8F1000F40F08580D4F86F
:1058700078904FF0000A00272397FEE02F210BE0DD
:1058800091420DD10133FE2B0AD8C25C42B1E1181E
:1058900091F8E0135C29F1D05C2AF1D12F22EFE7D7
:1058A000039AD25C62BBE21892F8E0235C2A01D032
:1058B0002F2A03D101330126002007E00026FBE751
:1058C0002F220EE08A4210D101330130FE2B0CD87A
:1058D0001BF800204AB146B1E11891F8E0135C2AA8
:1058E000EED05C29EED12F21ECE7FF2BACD846B1EE
:1058F0001BF80020234493F8E0339A42A4D100E03F
:105900000026002EA0D02E68702204F51C712846B7
:1059100009F06AFD2E600023FF2B06D8E21892F8EA
:10592000E022F25422BBFE2B22D8049FAFB1D4F860
:10593000FC3193B13D68702204F50071384609F0DE
:1059400053FD3D60D4F800220023FF2B05D8D15C25
:10595000E954D15C71B9FE2B0CD82E9B03B11E60AB
:10596000D4F8C4310133C4F8C431002301936DE18C
:105970000133D1E70133E8E70023C8F8503023931F
:10598000D8F8346004F50053D3F8A834B34218D9DA
:10599000239B0133239322AA3146204602F065FA65
:1059A000002840F05281012E40F24081229BB342F8
:1059B00000F03F81216C239A9142C0F03D811E4648
:1059C000E0E7A36A626DA3FB02322399A1FB033ACD
:1059D00001FB02AA4FEA531949EACA694FEA5A1A67
:1059E000C8F83890C8F83CA0049F002F3FF443AF9C
:1059F0003E6870224146384609F0F6FC3E60D8F811
:105A000000200023FF2B3FF636AFD15CF154D15C70
:105A100011B9FE2B7FF62FAF0133F3E7707800202A
:105A2000DDF808C0704608E0203BDBB29A4214D192
:105A30000CF1010C10F8013F7BB102789CF80030AA
:105A4000A2F16101C9B2192901D8203AD2B2A3F159
:105A50006101C9B21929E9D8E6E703781BB99CF8B6
:105A60000020934244D02B7933BB4E454FF00003C6
:105A700073EB0A033ED2002F3CD12B4623AA4146AA
:105A80002046FEF795FD239E0136239601900028BF
:105A900040F0DC80D5F800E09EF8003053B32A7F58
:105AA00012F0080FE1D1E52BBAD12B79002BDCD015
:105AB000DDF808C07046C0E7291D029805E063457F
:105AC0000ED1013011F8013F53B191F800C00378B5
:105AD000A3F16102D2B2192AF1D8203BDBB2EEE782
